{
  "contractName": "Funding",
  "abi": [
    {
      "inputs": [
        {
          "internalType": "address payable",
          "name": "_address",
          "type": "address"
        },
        {
          "internalType": "string",
          "name": "_name",
          "type": "string"
        },
        {
          "internalType": "uint256",
          "name": "_target",
          "type": "uint256"
        }
      ],
      "stateMutability": "nonpayable",
      "type": "constructor"
    },
    {
      "inputs": [],
      "name": "_calculatedPoints",
      "outputs": [
        {
          "internalType": "uint256",
          "name": "",
          "type": "uint256"
        }
      ],
      "stateMutability": "view",
      "type": "function",
      "constant": true
    },
    {
      "inputs": [],
      "name": "_fundingTarget",
      "outputs": [
        {
          "internalType": "uint256",
          "name": "",
          "type": "uint256"
        }
      ],
      "stateMutability": "view",
      "type": "function",
      "constant": true
    },
    {
      "inputs": [],
      "name": "_reward",
      "outputs": [
        {
          "internalType": "uint256",
          "name": "",
          "type": "uint256"
        }
      ],
      "stateMutability": "payable",
      "type": "function",
      "payable": true
    },
    {
      "inputs": [],
      "name": "_deposit",
      "outputs": [
        {
          "internalType": "bool",
          "name": "success",
          "type": "bool"
        },
        {
          "internalType": "uint256",
          "name": "balance",
          "type": "uint256"
        }
      ],
      "stateMutability": "payable",
      "type": "function",
      "payable": true
    },
    {
      "inputs": [],
      "name": "balanceOfTarget",
      "outputs": [
        {
          "internalType": "uint256",
          "name": "",
          "type": "uint256"
        }
      ],
      "stateMutability": "view",
      "type": "function",
      "constant": true
    },
    {
      "inputs": [
        {
          "internalType": "address",
          "name": "_address",
          "type": "address"
        }
      ],
      "name": "_reward_balance",
      "outputs": [
        {
          "internalType": "uint256",
          "name": "",
          "type": "uint256"
        }
      ],
      "stateMutability": "view",
      "type": "function",
      "constant": true
    },
    {
      "inputs": [
        {
          "internalType": "address payable",
          "name": "_to",
          "type": "address"
        }
      ],
      "name": "_withdraw",
      "outputs": [
        {
          "internalType": "bool",
          "name": "success",
          "type": "bool"
        }
      ],
      "stateMutability": "payable",
      "type": "function",
      "payable": true
    }
  ],
  "bytecode": "0x6080604052600560045534801562000015575f80fd5b5060405162000d7838038062000d7883398181016040528101906200003b9190620002ba565b806003819055508260015f6101000a81548173ffffffffffffffffffffffffffffffffffffffff021916908373ffffffffffffffffffffffffffffffffffffffff160217905550815f908162000092919062000560565b5050505062000644565b5f604051905090565b5f80fd5b5f80fd5b5f73ffffffffffffffffffffffffffffffffffffffff82169050919050565b5f620000d882620000ad565b9050919050565b620000ea81620000cc565b8114620000f5575f80fd5b50565b5f815190506200010881620000df565b92915050565b5f80fd5b5f80fd5b5f601f19601f8301169050919050565b7f4e487b71000000000000000000000000000000000000000000000000000000005f52604160045260245ffd5b6200015e8262000116565b810181811067ffffffffffffffff8211171562000180576200017f62000126565b5b80604052505050565b5f620001946200009c565b9050620001a2828262000153565b919050565b5f67ffffffffffffffff821115620001c457620001c362000126565b5b620001cf8262000116565b9050602081019050919050565b5f5b83811015620001fb578082015181840152602081019050620001de565b5f8484015250505050565b5f6200021c6200021684620001a7565b62000189565b9050828152602081018484840111156200023b576200023a62000112565b5b62000248848285620001dc565b509392505050565b5f82601f8301126200026757620002666200010e565b5b81516200027984826020860162000206565b91505092915050565b5f819050919050565b620002968162000282565b8114620002a1575f80fd5b50565b5f81519050620002b4816200028b565b92915050565b5f805f60608486031215620002d457620002d3620000a5565b5b5f620002e386828701620000f8565b935050602084015167ffffffffffffffff811115620003075762000306620000a9565b5b620003158682870162000250565b92505060406200032886828701620002a4565b9150509250925092565b5f81519050919050565b7f4e487b71000000000000000000000000000000000000000000000000000000005f52602260045260245ffd5b5f60028204905060018216806200038157607f821691505b6020821081036200039757620003966200033c565b5b50919050565b5f819050815f5260205f209050919050565b5f6020601f8301049050919050565b5f82821b905092915050565b5f60088302620003fb7fffffffffffffffffffffffffffffffffffffffffffffffffffffffffffffffff82620003be565b620004078683620003be565b95508019841693508086168417925050509392505050565b5f819050919050565b5f62000448620004426200043c8462000282565b6200041f565b62000282565b9050919050565b5f819050919050565b620004638362000428565b6200047b62000472826200044f565b848454620003ca565b825550505050565b5f90565b6200049162000483565b6200049e81848462000458565b505050565b5b81811015620004c557620004b95f8262000487565b600181019050620004a4565b5050565b601f8211156200051457620004de816200039d565b620004e984620003af565b81016020851015620004f9578190505b620005116200050885620003af565b830182620004a3565b50505b505050565b5f82821c905092915050565b5f620005365f198460080262000519565b1980831691505092915050565b5f62000550838362000525565b9150826002028217905092915050565b6200056b8262000332565b67ffffffffffffffff81111562000587576200058662000126565b5b62000593825462000369565b620005a0828285620004c9565b5f60209050601f831160018114620005d6575f8415620005c1578287015190505b620005cd858262000543565b8655506200063c565b601f198416620005e6866200039d565b5f5b828110156200060f57848901518255600182019150602085019450602081019050620005e8565b868310156200062f57848901516200062b601f89168262000525565b8355505b6001600288020188555050505b505050505050565b61072680620006525f395ff3fe60806040526004361061006f575f3560e01c8063abb721ce1161004d578063abb721ce146100f7578063adb3670014610116578063da1aaa5914610140578063f412feac146101705761006f565b80631be0717f1461007357806371cf5ad0146100915780637378d5c8146100bb575b5f80fd5b61007b61019a565b6040516100889190610459565b60405180910390f35b34801561009c575f80fd5b506100a56101ca565b6040516100b29190610459565b60405180910390f35b3480156100c6575f80fd5b506100e160048036038101906100dc91906104d0565b6101d0565b6040516100ee9190610459565b60405180910390f35b6100ff610216565b60405161010d929190610515565b60405180910390f35b348015610121575f80fd5b5061012a61031f565b6040516101379190610459565b60405180910390f35b61015a60048036038101906101559190610577565b610325565b60405161016791906105a2565b60405180910390f35b34801561017b575f80fd5b50610184610402565b6040516101919190610459565b60405180910390f35b5f8066038d7ea4c68000600454346101b29190610615565b6101bc9190610615565b905080600581905591505090565b60055481565b5f60025f8373ffffffffffffffffffffffffffffffffffffffff1673ffffffffffffffffffffffffffffffffffffffff1681526020019081526020015f20549050919050565b5f8061022061019a565b5060015f9054906101000a900473ffffffffffffffffffffffffffffffffffffffff1673ffffffffffffffffffffffffffffffffffffffff166108fc3490811502906040515f60405180830381858888f19350505050158015610285573d5f803e3d5ffd5b5060055460025f3373ffffffffffffffffffffffffffffffffffffffff1673ffffffffffffffffffffffffffffffffffffffff1681526020019081526020015f20546102d19190610645565b60025f3373ffffffffffffffffffffffffffffffffffffffff1673ffffffffffffffffffffffffffffffffffffffff1681526020019081526020015f20819055506001600554915091509091565b60035481565b5f3373ffffffffffffffffffffffffffffffffffffffff1660015f9054906101000a900473ffffffffffffffffffffffffffffffffffffffff1673ffffffffffffffffffffffffffffffffffffffff16146103b5576040517f08c379a00000000000000000000000000000000000000000000000000000000081526004016103ac906106d2565b60405180910390fd5b8173ffffffffffffffffffffffffffffffffffffffff166108fc3490811502906040515f60405180830381858888f193505050501580156103f8573d5f803e3d5ffd5b5060019050919050565b5f60015f9054906101000a900473ffffffffffffffffffffffffffffffffffffffff1673ffffffffffffffffffffffffffffffffffffffff1631905090565b5f819050919050565b61045381610441565b82525050565b5f60208201905061046c5f83018461044a565b92915050565b5f80fd5b5f73ffffffffffffffffffffffffffffffffffffffff82169050919050565b5f61049f82610476565b9050919050565b6104af81610495565b81146104b9575f80fd5b50565b5f813590506104ca816104a6565b92915050565b5f602082840312156104e5576104e4610472565b5b5f6104f2848285016104bc565b91505092915050565b5f8115159050919050565b61050f816104fb565b82525050565b5f6040820190506105285f830185610506565b610535602083018461044a565b9392505050565b5f61054682610476565b9050919050565b6105568161053c565b8114610560575f80fd5b50565b5f813590506105718161054d565b92915050565b5f6020828403121561058c5761058b610472565b5b5f61059984828501610563565b91505092915050565b5f6020820190506105b55f830184610506565b92915050565b7f4e487b71000000000000000000000000000000000000000000000000000000005f52601260045260245ffd5b7f4e487b71000000000000000000000000000000000000000000000000000000005f52601160045260245ffd5b5f61061f82610441565b915061062a83610441565b92508261063a576106396105bb565b5b828204905092915050565b5f61064f82610441565b915061065a83610441565b9250828201905080821115610672576106716105e8565b5b92915050565b5f82825260208201905092915050565b7f5065726d697373696f6e2064656e6965640000000000000000000000000000005f82015250565b5f6106bc601183610678565b91506106c782610688565b602082019050919050565b5f6020820190508181035f8301526106e9816106b0565b905091905056fea2646970667358221220a30ef335bae8ca3ad9c85686871853f2414ed08b8214259854787102cb1fb9a264736f6c63430008150033",
  "immutableReferences": {},
  "source": "// SPDX-License-Identifier: MIT\npragma solidity >=0.4.22 <0.9.0;\n\ncontract Funding {\n    string name;\n    address payable _owner;\n\n    mapping(address => uint256) _contribution_rewards;\n    uint public _fundingTarget;\n\n    uint _rate = 5;\n    //?? for every wei depoisted contributors get 10 points\n\n    constructor(\n        address payable _address,\n        string memory _name,\n        uint _target\n    ) public {\n        _fundingTarget = _target;\n        _owner = _address;\n        name = _name;\n    }\n    uint256 public _calculatedPoints;\n\n    function _reward() public payable returns (uint256) {\n        uint _points = msg.value / _rate / 10 ** 15;\n        return _calculatedPoints = _points;\n    }\n\n    function _deposit() public payable returns (bool success, uint256 balance) {\n        _reward();\n        _owner.transfer(msg.value);\n        _contribution_rewards[msg.sender] =\n            _contribution_rewards[msg.sender] +\n            _calculatedPoints;\n        return (true, _calculatedPoints);\n    }\n\n    function balanceOfTarget() public view returns (uint256) {\n        return _owner.balance;\n    }\n\n    function _reward_balance(address _address) public view returns (uint256) {\n        return _contribution_rewards[_address];\n    }\n\n    modifier isOwner() {\n        require(_owner == msg.sender, \"Permission denied\");\n        _;\n    }\n    function _withdraw(\n        address payable _to\n    ) public payable isOwner returns (bool success) {\n        _to.transfer(msg.value);\n        return true;\n    }\n}\n",
  "sourcePath": "C:\\Users\\Ayomide\\Blockchain\\crowdfunding\\contracts\\Funding.sol",
  "compiler": {
    "name": "solc",
    "version": "0.8.21+commit.d9974bed.Emscripten.clang"
  },
  "schemaVersion": "3.4.16",
  "updatedAt": "2024-07-01T12:02:15.524Z",
  "networkType": "ethereum",
  "devdoc": {
    "kind": "dev",
    "methods": {},
    "version": 1
  },
  "userdoc": {
    "kind": "user",
    "methods": {},
    "version": 1
  }
}